C51 COMPILER V9.60.0.0   CHIRP_MAIN                                                        01/27/2022 09:04:06 PAGE 1   


C51 COMPILER V9.60.0.0, COMPILATION OF MODULE CHIRP_MAIN
OBJECT MODULE PLACED IN chirp_main.OBJ
COMPILER INVOKED BY: C:\Keil_v5\C51\BIN\C51.exe chirp_main.c DB OE BR BROWSE DEBUG OBJECTEXTEND INCDIR(..\..\common\src;
                    -..\src;c:\SiLabs\MCU\Inc)

line level    source

   1          /*------------------------------------------------------------------------------
   2           *                          Silicon Laboratories, Inc.
   3           *                           http://www.silabs.com
   4           *                               Copyright 2010
   5           *------------------------------------------------------------------------------
   6           *
   7           *    FILE:       tone_demo_main.c
   8           *    TARGET:     Si4010
   9           *    TOOLCHAIN:  Generic
  10           *    DATE:       May 05, 2010, Wednesday
  11           *    RELEASE:    2.1 (MPech), ROM version 02.00, trim 3
  12           *
  13           *------------------------------------------------------------------------------
  14           *
  15           *    DESCRIPTION:
  16           *      This file contains the main function for the tone demo.
  17           *      It MUST be run on properly trim part!
  18           *
  19           *      Then it tracks frequency with temperature by fine tuning
  20           *      process by repeatedly calling the vStl_SingleTxLoop() function.
  21           *      Ultimately, if the temperature is going to drift too much
  22           *      from what it was during the main tuning vFCast_Tune()
  23           *      call then the fine tuning process will not be able
  24           *      to properly track the output frequency with temperature.
  25           *
  26           *      For an example how to interrupt to CW tone output after
  27           *      predefined time, retune by vFCast_Tune(), and start transmitting
  28           *      tone again see the tone_demo_ptune_main.c for periodic tuning.
  29           *
  30           *------------------------------------------------------------------------------
  31           *
  32           *    INCLUDES:
  33           */
  34          #include <stdlib.h>
  35          
  36          #include "si4010.h"
  37          
  38          #include "si4010_api_rom.h"
  39          
  40          #include "chirp.h"
  41          
  42          
  43          /*------------------------------------------------------------------------------
  44           *
  45           *    FUNCTION DESCRIPTION:
  46           *      Main function for the example.
  47           *
  48           *------------------------------------------------------------------------------
  49           */
  50          
  51          void main(void) {
  52   1      
  53   1        wOutputPower = 120; //Range = 0 to 127
  54   1        wLEDOnTime = 20; //Time led must remain on in Ms
C51 COMPILER V9.60.0.0   CHIRP_MAIN                                                        01/27/2022 09:04:06 PAGE 2   

  55   1        wTransmissionTime = 20; //Transmittion time in Ms
  56   1        
  57   1        //for PROD
  58   1        lSleepTime = (lSleepTim_GetOneHourValue() / 1800); //sleep time in ticks  ie. 2 seconds
  59   1        //for DEBUG
  60   1        //at 2.4kHz, 2400 ticks per second, 8640000 ticks per hr therefore 2 seconds = 4800 ticks
  61   1        wSleepTime = (lSleepTime/2400)*1000; //sleep time in ms. Change lSleepTime, not this.
  62   1        while (1) {
  63   2          fFrequency = 151000000; //Units = Hz
  64   2              wFrequencyShift = 0; //used for button presses
  65   2          //Set DMD interrupt to high priority,
  66   2          // any other interrupts have to stay low priority
  67   2          PDMD = 1;
  68   2          // Disable the Matrix and Roff modes 
  69   2          PORT_CTRL &= ~(M_PORT_MATRIX | M_PORT_ROFF | M_PORT_STROBE);
  70   2          PORT_CTRL |= M_PORT_STROBE;
  71   2          PORT_CTRL &= ~M_PORT_STROBE;
  72   2              
  73   2              //simple binary combination 2^5 = 32 combinations
  74   2              if(!GPIO0)
  75   2              {
  76   3              wFrequencyShift = wFrequencyShift+1;
  77   3              }
  78   2              if(!GPIO1)
  79   2              {
  80   3                      wFrequencyShift = wFrequencyShift+2;
  81   3              }
  82   2              if(!GPIO2)
  83   2              {
  84   3                      wFrequencyShift = wFrequencyShift+4;
  85   3              }
  86   2              if(!GPIO3)
  87   2              {
  88   3                      wFrequencyShift = wFrequencyShift+8;
  89   3              }
  90   2              if(!GPIO4)
  91   2              {
  92   3                      wFrequencyShift = wFrequencyShift+16;
  93   3              }
  94   2              
  95   2              if(wFrequencyShift !=0)
  96   2              {
  97   3                      fFrequency = fFrequency + (wFrequencyShift*100000); //eg. Base is 150Mz buttons can shift the frequency 
             -from 150.1Mz -> 153.2Mhz (in 0,1Mhz steps)
  98   3              }
  99   2          // LED control bit off 
 100   2          GPIO_LED = 0;
 101   2      
 102   2          // Call the system setup. This just for initialization.
 103   2          // Argument of 1 just configures the SYS module such that the
 104   2          // bandgap can be turned off if needed.  
 105   2          vSys_Setup(1);
 106   2      
 107   2          // Setup the bandgap for working with the temperature sensor here.
 108   2          // bSys_FirstBatteryInsertWaitTime set to non zero value. 
 109   2          vSys_BandGapLdo(1);
 110   2      
 111   2          // Setup the RTC to tick every 5ms and clear it. Keep it disabled. 
 112   2          RTC_CTRL = (0x07 << B_RTC_DIV) | M_RTC_CLR;
 113   2          // Enable the RTC 
 114   2          RTC_CTRL |= M_RTC_ENA;
 115   2          // Enable the RTC interrupt and global interrupt enable 
C51 COMPILER V9.60.0.0   CHIRP_MAIN                                                        01/27/2022 09:04:06 PAGE 3   

 116   2          ERTC = 1;
 117   2          EA = 1;
 118   2          //Initialize the master time value
 119   2          vSys_SetMasterTime(0);
 120   2      
 121   2          // PA setup.  Where PA -. Power amplifier
 122   2          // fAlpha and fBeta has to be set based on antenna configuration.
 123   2          // Chose a PA level and nominal cap. Both values come from
 124   2          // the calculation spreadsheet. 
 125   2          rPaSetup.fAlpha = 0.0;
 126   2          rPaSetup.fBeta = 0.0;
 127   2          //PA transmit power level
 128   2          rPaSetup.bLevel = wOutputPower;
 129   2          rPaSetup.wNominalCap = 256;
 130   2          // Boost bias current to output DAC. Allows for maximum 10.5mA drive. Only LSb bit (bit 0) is used. 
 131   2          rPaSetup.bMaxDrv = 1;
 132   2      
 133   2          // PA setup.
 134   2          vPa_Setup( & rPaSetup);
 135   2      
 136   2          // ODS setup .. results from calculation spreadsheet. Where ODS -> Output data serializer
 137   2          // Set to 1kbps OOK 
 138   2          rOdsSetup.bModulationType = 0; // 1 .. FSK, 0 .. OOK 
 139   2          rOdsSetup.bClkDiv = 5;
 140   2          rOdsSetup.bEdgeRate = 0;
 141   2      
 142   2          // Set group width to 7, which means 8 bits/encoded byte to be transmitted.
 143   2          // The value must match the output width of the data encoding function
 144   2          // set by the vStl_EncodeSetup() below. 
 145   2          rOdsSetup.bGroupWidth = 7;
 146   2          rOdsSetup.wBitRate = 4000; // 1kbps 
 147   2      
 148   2          // Configure the warm up intervals LC: 8, DIV: 5, PA: 4 
 149   2          rOdsSetup.bLcWarmInt = 8;
 150   2          rOdsSetup.bDivWarmInt = 5;
 151   2          rOdsSetup.bPaWarmInt = 4;
 152   2      
 153   2          // ODS setup 
 154   2          vOds_Setup( & rOdsSetup);
 155   2      
 156   2          // Setup the STL encoding for none. No encode function therefore we
 157   2          // leave the pointer at NULL. 
 158   2          vStl_EncodeSetup(bEnc_NoneNrz_c, NULL);
 159   2      
 160   2          // Generate the frame to use. Example array is fixed in CODE
 161   2          // as constant for this example. Assign the beginning of the array
 162   2          // to the pbFrameHead pointer. 
 163   2          pbFrameHead = (BYTE xdata * ) abTone_FrameArray;
 164   2      
 165   2          // Setup frequency casting .. needed to be called once per boot 
 166   2          vFCast_Setup();
 167   2      
 168   2          // Run at preSet MHz.  Continue to tune frequency between frames.
 169   2          // This is not absolutely necessary as the Single transmission loop
 170   2          // also adjusts for temperature drift. It calculate values used by
 171   2          // the vStl_SingleTxLoop() during transmission. Input is in [Hz]. 
 172   2          vFCast_Tune(fFrequency);
 173   2      
 174   2          // Now wait until there is a demodulated temperature sample. Where DMD ISR is Temperature Sensor Inter
             -rupt Service
 175   2          while (0 == bDmdTs_GetSamplesTaken()) {}
 176   2      
C51 COMPILER V9.60.0.0   CHIRP_MAIN                                                        01/27/2022 09:04:06 PAGE 4   

 177   2          // Tune the PA with the current temperature as an argument 
 178   2          vPa_Tune(iDmdTs_GetLatestTemp());
 179   2      
 180   2          vSys_LedIntensity(3); //0.97 mA
 181   2      
 182   2          // Encoding is none .. 0. Force first byte to turn the PA on.
 183   2          // Set the all 1's output if there is no data .. value 3 below. 
 184   2          ODS_CTRL = (ODS_CTRL & (~M_ODS_SHIFT_CTRL)) | (3 << B_ODS_SHIFT_CTRL);
 185   2      
 186   2          // get current timestamp  
 187   2          //lTimestamp = lSys_GetMasterTime();
 188   2      
 189   2          //GPIO_LED = 1; //Turn LED on
 190   2          //while ((lSys_GetMasterTime() - lTimestamp) < wLEDOnTime) //ms
 191   2          //{
 192   2            //wait for LED ON time to expire
 193   2          //}
 194   2          //GPIO_LED = 0; //turn LED off
 195   2      
 196   2          //-- Run the Single Tx Loop 
 197   2          vStl_PreLoop();
 198   2      
 199   2          lTimestamp = lSys_GetMasterTime();
 200   2              GPIO_LED = 1;
 201   2          while ((lSys_GetMasterTime() - lTimestamp) < wTransmissionTime) {
 202   3            // Wait repeat interval. 
 203   3            //Transmit packet
 204   3            vStl_SingleTxLoop(pbFrameHead, 1);
 205   3          }
 206   2          vStl_PostLoop();
 207   2              GPIO_LED = 0;
 208   2      
 209   2          //if part is burned to user or run mode.
 210   2          if ((PROT0_CTRL & M_NVM_BLOWN) > 1) {
 211   3            // enable Sleep timer
 212   3            vSleepTim_SetCount(lSleepTime | 0x01000000);
 213   3      
 214   3            //Disable all interrupts
 215   3            EA = 0;
 216   3            // Shutdown
 217   3            vSys_Shutdown();
 218   3          } else {
 219   3            lTimestamp = lSys_GetMasterTime();
 220   3            while ((lSys_GetMasterTime() - lTimestamp) < wSleepTime) //ms
 221   3            {
 222   4              //mock a sleep
 223   4            }
 224   3          }
 225   2        }
 226   1      
 227   1        // This will never happen. 
 228   1        return;
 229   1      }
 230          
 231          //------------------------------------------------------------------------------


MODULE INFORMATION:   STATIC OVERLAYABLE
   CODE SIZE        =    546    ----
   CONSTANT SIZE    =      4    ----
   XDATA SIZE       =     26    ----
   PDATA SIZE       =   ----    ----
C51 COMPILER V9.60.0.0   CHIRP_MAIN                                                        01/27/2022 09:04:06 PAGE 5   

   DATA SIZE        =     29    ----
   IDATA SIZE       =   ----    ----
   BIT SIZE         =   ----    ----
END OF MODULE INFORMATION.


C51 COMPILATION COMPLETE.  0 WARNING(S),  0 ERROR(S)
